{
	"data": {
		"bytecode": {
			"linkReferences": {},
			"object": "608060405260015f806101000a81548160ff021916908315150217905550348015610028575f80fd5b506103f0806100365f395ff3fe608060405234801561000f575f80fd5b5060043610610060575f3560e01c80630c55699c1461006457806322253f56146100825780634df7e3d01461009e578063946e182c146100bc578063f3d33cf4146100db578063fe39fe8e146100f9575b5f80fd5b61006c610115565b60405161007991906101fe565b60405180910390f35b61009c60048036038101906100979190610245565b61011b565b005b6100a661017a565b6040516100b3919061028a565b60405180910390f35b6100c461018a565b6040516100d29291906102bb565b60405180910390f35b6100e36101b7565b6040516100f0919061028a565b60405180910390f35b610113600480360381019061010e9190610245565b6101cb565b005b60015481565b805f811161015e576040517f08c379a00000000000000000000000000000000000000000000000000000000081526004016101559061033c565b60405180910390fd5b8060015f82825461016f9190610387565b925050819055505050565b5f8054906101000a900460ff1681565b5f807ffffffffffffffffffffffffffffffffffffffffffffffffffffffffffffffffe9150600190509091565b5f805f9054906101000a900460ff16905090565b8060015f8282546101dc9190610387565b9250508190555050565b5f819050919050565b6101f8816101e6565b82525050565b5f6020820190506102115f8301846101ef565b92915050565b5f80fd5b610224816101e6565b811461022e575f80fd5b50565b5f8135905061023f8161021b565b92915050565b5f6020828403121561025a57610259610217565b5b5f61026784828501610231565b91505092915050565b5f8115159050919050565b61028481610270565b82525050565b5f60208201905061029d5f83018461027b565b92915050565b5f819050919050565b6102b5816102a3565b82525050565b5f6040820190506102ce5f8301856102ac565b6102db602083018461027b565b9392505050565b5f82825260208201905092915050565b7f526564756365206d0000000000000000000000000000000000000000000000005f82015250565b5f6103266008836102e2565b9150610331826102f2565b602082019050919050565b5f6020820190508181035f8301526103538161031a565b9050919050565b7f4e487b71000000000000000000000000000000000000000000000000000000005f52601160045260245ffd5b5f610391826101e6565b915061039c836101e6565b92508282019050808211156103b4576103b361035a565b5b9291505056fea2646970667358221220cc9f85c44d3ec496963f0fdca6a4d6d11dd94d720acbc5ee696f7d970f82044f64736f6c63430008160033",
			"opcodes": "PUSH1 0x80 PUSH1 0x40 MSTORE PUSH1 0x1 PUSH0 DUP1 PUSH2 0x100 EXP DUP2 SLOAD DUP2 PUSH1 0xFF MUL NOT AND SWAP1 DUP4 ISZERO ISZERO MUL OR SWAP1 SSTORE POP CALLVALUE DUP1 ISZERO PUSH2 0x28 JUMPI PUSH0 DUP1 REVERT JUMPDEST POP PUSH2 0x3F0 DUP1 PUSH2 0x36 PUSH0 CODECOPY PUSH0 RETURN INVALID PUSH1 0x80 PUSH1 0x40 MSTORE CALLVALUE DUP1 ISZERO PUSH2 0xF JUMPI PUSH0 DUP1 REVERT JUMPDEST POP PUSH1 0x4 CALLDATASIZE LT PUSH2 0x60 JUMPI PUSH0 CALLDATALOAD PUSH1 0xE0 SHR DUP1 PUSH4 0xC55699C EQ PUSH2 0x64 JUMPI DUP1 PUSH4 0x22253F56 EQ PUSH2 0x82 JUMPI DUP1 PUSH4 0x4DF7E3D0 EQ PUSH2 0x9E JUMPI DUP1 PUSH4 0x946E182C EQ PUSH2 0xBC JUMPI DUP1 PUSH4 0xF3D33CF4 EQ PUSH2 0xDB JUMPI DUP1 PUSH4 0xFE39FE8E EQ PUSH2 0xF9 JUMPI JUMPDEST PUSH0 DUP1 REVERT JUMPDEST PUSH2 0x6C PUSH2 0x115 JUMP JUMPDEST PUSH1 0x40 MLOAD PUSH2 0x79 SWAP2 SWAP1 PUSH2 0x1FE JUMP JUMPDEST PUSH1 0x40 MLOAD DUP1 SWAP2 SUB SWAP1 RETURN JUMPDEST PUSH2 0x9C PUSH1 0x4 DUP1 CALLDATASIZE SUB DUP2 ADD SWAP1 PUSH2 0x97 SWAP2 SWAP1 PUSH2 0x245 JUMP JUMPDEST PUSH2 0x11B JUMP JUMPDEST STOP JUMPDEST PUSH2 0xA6 PUSH2 0x17A JUMP JUMPDEST PUSH1 0x40 MLOAD PUSH2 0xB3 SWAP2 SWAP1 PUSH2 0x28A JUMP JUMPDEST PUSH1 0x40 MLOAD DUP1 SWAP2 SUB SWAP1 RETURN JUMPDEST PUSH2 0xC4 PUSH2 0x18A JUMP JUMPDEST PUSH1 0x40 MLOAD PUSH2 0xD2 SWAP3 SWAP2 SWAP1 PUSH2 0x2BB JUMP JUMPDEST PUSH1 0x40 MLOAD DUP1 SWAP2 SUB SWAP1 RETURN JUMPDEST PUSH2 0xE3 PUSH2 0x1B7 JUMP JUMPDEST PUSH1 0x40 MLOAD PUSH2 0xF0 SWAP2 SWAP1 PUSH2 0x28A JUMP JUMPDEST PUSH1 0x40 MLOAD DUP1 SWAP2 SUB SWAP1 RETURN JUMPDEST PUSH2 0x113 PUSH1 0x4 DUP1 CALLDATASIZE SUB DUP2 ADD SWAP1 PUSH2 0x10E SWAP2 SWAP1 PUSH2 0x245 JUMP JUMPDEST PUSH2 0x1CB JUMP JUMPDEST STOP JUMPDEST PUSH1 0x1 SLOAD DUP2 JUMP JUMPDEST DUP1 PUSH0 DUP2 GT PUSH2 0x15E JUMPI PUSH1 0x40 MLOAD PUSH32 0x8C379A000000000000000000000000000000000000000000000000000000000 DUP2 MSTORE PUSH1 0x4 ADD PUSH2 0x155 SWAP1 PUSH2 0x33C JUMP JUMPDEST PUSH1 0x40 MLOAD DUP1 SWAP2 SUB SWAP1 REVERT JUMPDEST DUP1 PUSH1 0x1 PUSH0 DUP3 DUP3 SLOAD PUSH2 0x16F SWAP2 SWAP1 PUSH2 0x387 JUMP JUMPDEST SWAP3 POP POP DUP2 SWAP1 SSTORE POP POP POP JUMP JUMPDEST PUSH0 DUP1 SLOAD SWAP1 PUSH2 0x100 EXP SWAP1 DIV PUSH1 0xFF AND DUP2 JUMP JUMPDEST PUSH0 DUP1 PUSH32 0xFFFFFFFFFFFFFFFFFFFFFFFFFFFFFFFFFFFFFFFFFFFFFFFFFFFFFFFFFFFFFFFE SWAP2 POP PUSH1 0x1 SWAP1 POP SWAP1 SWAP2 JUMP JUMPDEST PUSH0 DUP1 PUSH0 SWAP1 SLOAD SWAP1 PUSH2 0x100 EXP SWAP1 DIV PUSH1 0xFF AND SWAP1 POP SWAP1 JUMP JUMPDEST DUP1 PUSH1 0x1 PUSH0 DUP3 DUP3 SLOAD PUSH2 0x1DC SWAP2 SWAP1 PUSH2 0x387 JUMP JUMPDEST SWAP3 POP POP DUP2 SWAP1 SSTORE POP POP JUMP JUMPDEST PUSH0 DUP2 SWAP1 POP SWAP2 SWAP1 POP JUMP JUMPDEST PUSH2 0x1F8 DUP2 PUSH2 0x1E6 JUMP JUMPDEST DUP3 MSTORE POP POP JUMP JUMPDEST PUSH0 PUSH1 0x20 DUP3 ADD SWAP1 POP PUSH2 0x211 PUSH0 DUP4 ADD DUP5 PUSH2 0x1EF JUMP JUMPDEST SWAP3 SWAP2 POP POP JUMP JUMPDEST PUSH0 DUP1 REVERT JUMPDEST PUSH2 0x224 DUP2 PUSH2 0x1E6 JUMP JUMPDEST DUP2 EQ PUSH2 0x22E JUMPI PUSH0 DUP1 REVERT JUMPDEST POP JUMP JUMPDEST PUSH0 DUP2 CALLDATALOAD SWAP1 POP PUSH2 0x23F DUP2 PUSH2 0x21B JUMP JUMPDEST SWAP3 SWAP2 POP POP JUMP JUMPDEST PUSH0 PUSH1 0x20 DUP3 DUP5 SUB SLT ISZERO PUSH2 0x25A JUMPI PUSH2 0x259 PUSH2 0x217 JUMP JUMPDEST JUMPDEST PUSH0 PUSH2 0x267 DUP5 DUP3 DUP6 ADD PUSH2 0x231 JUMP JUMPDEST SWAP2 POP POP SWAP3 SWAP2 POP POP JUMP JUMPDEST PUSH0 DUP2 ISZERO ISZERO SWAP1 POP SWAP2 SWAP1 POP JUMP JUMPDEST PUSH2 0x284 DUP2 PUSH2 0x270 JUMP JUMPDEST DUP3 MSTORE POP POP JUMP JUMPDEST PUSH0 PUSH1 0x20 DUP3 ADD SWAP1 POP PUSH2 0x29D PUSH0 DUP4 ADD DUP5 PUSH2 0x27B JUMP JUMPDEST SWAP3 SWAP2 POP POP JUMP JUMPDEST PUSH0 DUP2 SWAP1 POP SWAP2 SWAP1 POP JUMP JUMPDEST PUSH2 0x2B5 DUP2 PUSH2 0x2A3 JUMP JUMPDEST DUP3 MSTORE POP POP JUMP JUMPDEST PUSH0 PUSH1 0x40 DUP3 ADD SWAP1 POP PUSH2 0x2CE PUSH0 DUP4 ADD DUP6 PUSH2 0x2AC JUMP JUMPDEST PUSH2 0x2DB PUSH1 0x20 DUP4 ADD DUP5 PUSH2 0x27B JUMP JUMPDEST SWAP4 SWAP3 POP POP POP JUMP JUMPDEST PUSH0 DUP3 DUP3 MSTORE PUSH1 0x20 DUP3 ADD SWAP1 POP SWAP3 SWAP2 POP POP JUMP JUMPDEST PUSH32 0x526564756365206D000000000000000000000000000000000000000000000000 PUSH0 DUP3 ADD MSTORE POP JUMP JUMPDEST PUSH0 PUSH2 0x326 PUSH1 0x8 DUP4 PUSH2 0x2E2 JUMP JUMPDEST SWAP2 POP PUSH2 0x331 DUP3 PUSH2 0x2F2 JUMP JUMPDEST PUSH1 0x20 DUP3 ADD SWAP1 POP SWAP2 SWAP1 POP JUMP JUMPDEST PUSH0 PUSH1 0x20 DUP3 ADD SWAP1 POP DUP2 DUP2 SUB PUSH0 DUP4 ADD MSTORE PUSH2 0x353 DUP2 PUSH2 0x31A JUMP JUMPDEST SWAP1 POP SWAP2 SWAP1 POP JUMP JUMPDEST PUSH32 0x4E487B7100000000000000000000000000000000000000000000000000000000 PUSH0 MSTORE PUSH1 0x11 PUSH1 0x4 MSTORE PUSH1 0x24 PUSH0 REVERT JUMPDEST PUSH0 PUSH2 0x391 DUP3 PUSH2 0x1E6 JUMP JUMPDEST SWAP2 POP PUSH2 0x39C DUP4 PUSH2 0x1E6 JUMP JUMPDEST SWAP3 POP DUP3 DUP3 ADD SWAP1 POP DUP1 DUP3 GT ISZERO PUSH2 0x3B4 JUMPI PUSH2 0x3B3 PUSH2 0x35A JUMP JUMPDEST JUMPDEST SWAP3 SWAP2 POP POP JUMP INVALID LOG2 PUSH5 0x6970667358 0x22 SLT KECCAK256 0xCC SWAP16 DUP6 0xC4 0x4D RETURNDATACOPY 0xC4 SWAP7 SWAP7 EXTCODEHASH 0xF 0xDC 0xA6 LOG4 0xD6 0xD1 SAR 0xD9 0x4D PUSH19 0xACBC5EE696F7D970F82044F64736F6C634300 ADDMOD AND STOP CALLER "
		},
		"gasEstimates": {
			"creation": {
				"codeDepositCost": "201600",
				"executionCost": "24509",
				"totalCost": "226109"
			},
			"external": {
				"addToX2(uint256)": "infinite",
				"b()": "2485",
				"get_b()": "2539",
				"inCreaseX(uint256)": "infinite",
				"returnTwo()": "495",
				"x()": "2403"
			}
		},
		"methodIdentifiers": {
			"addToX2(uint256)": "fe39fe8e",
			"b()": "4df7e3d0",
			"get_b()": "f3d33cf4",
			"inCreaseX(uint256)": "22253f56",
			"returnTwo()": "946e182c",
			"x()": "0c55699c"
		}
	},
	"abi": [
		{
			"inputs": [
				{
					"internalType": "uint256",
					"name": "y",
					"type": "uint256"
				}
			],
			"name": "addToX2",
			"outputs": [],
			"stateMutability": "nonpayable",
			"type": "function"
		},
		{
			"inputs": [],
			"name": "b",
			"outputs": [
				{
					"internalType": "bool",
					"name": "",
					"type": "bool"
				}
			],
			"stateMutability": "view",
			"type": "function"
		},
		{
			"inputs": [],
			"name": "get_b",
			"outputs": [
				{
					"internalType": "bool",
					"name": "",
					"type": "bool"
				}
			],
			"stateMutability": "view",
			"type": "function"
		},
		{
			"inputs": [
				{
					"internalType": "uint256",
					"name": "m",
					"type": "uint256"
				}
			],
			"name": "inCreaseX",
			"outputs": [],
			"stateMutability": "nonpayable",
			"type": "function"
		},
		{
			"inputs": [],
			"name": "returnTwo",
			"outputs": [
				{
					"internalType": "int256",
					"name": "z1",
					"type": "int256"
				},
				{
					"internalType": "bool",
					"name": "z2",
					"type": "bool"
				}
			],
			"stateMutability": "pure",
			"type": "function"
		},
		{
			"inputs": [],
			"name": "x",
			"outputs": [
				{
					"internalType": "uint256",
					"name": "",
					"type": "uint256"
				}
			],
			"stateMutability": "view",
			"type": "function"
		}
	]
}